{
  "_format": "hh-sol-artifact-1",
  "contractName": "SovaKeyShop",
  "sourceName": "contracts/SovaKeyShop.sol",
  "abi": [
    {
      "inputs": [
        {
          "internalType": "uint256",
          "name": "_keyPrice",
          "type": "uint256"
        }
      ],
      "stateMutability": "nonpayable",
      "type": "constructor"
    },
    {
      "anonymous": false,
      "inputs": [
        {
          "indexed": false,
          "internalType": "uint256",
          "name": "oldPrice",
          "type": "uint256"
        },
        {
          "indexed": false,
          "internalType": "uint256",
          "name": "newPrice",
          "type": "uint256"
        }
      ],
      "name": "KeyPriceUpdated",
      "type": "event"
    },
    {
      "anonymous": false,
      "inputs": [
        {
          "indexed": true,
          "internalType": "address",
          "name": "buyer",
          "type": "address"
        },
        {
          "indexed": false,
          "internalType": "uint256",
          "name": "quantity",
          "type": "uint256"
        },
        {
          "indexed": false,
          "internalType": "uint256",
          "name": "totalPaid",
          "type": "uint256"
        }
      ],
      "name": "KeysPurchased",
      "type": "event"
    },
    {
      "inputs": [
        {
          "internalType": "uint256",
          "name": "quantity",
          "type": "uint256"
        }
      ],
      "name": "buyKeys",
      "outputs": [],
      "stateMutability": "payable",
      "type": "function"
    },
    {
      "inputs": [],
      "name": "keyPrice",
      "outputs": [
        {
          "internalType": "uint256",
          "name": "",
          "type": "uint256"
        }
      ],
      "stateMutability": "view",
      "type": "function"
    },
    {
      "inputs": [],
      "name": "owner",
      "outputs": [
        {
          "internalType": "address",
          "name": "",
          "type": "address"
        }
      ],
      "stateMutability": "view",
      "type": "function"
    },
    {
      "inputs": [
        {
          "internalType": "uint256",
          "name": "_newPrice",
          "type": "uint256"
        }
      ],
      "name": "setKeyPrice",
      "outputs": [],
      "stateMutability": "nonpayable",
      "type": "function"
    },
    {
      "inputs": [],
      "name": "withdraw",
      "outputs": [],
      "stateMutability": "nonpayable",
      "type": "function"
    }
  ],
  "bytecode": "0x608060405234801561001057600080fd5b506040516107e93803806107e9833981810160405281019061003291906100ba565b336000806101000a81548173ffffffffffffffffffffffffffffffffffffffff021916908373ffffffffffffffffffffffffffffffffffffffff16021790555080600181905550506100e7565b600080fd5b6000819050919050565b61009781610084565b81146100a257600080fd5b50565b6000815190506100b48161008e565b92915050565b6000602082840312156100d0576100cf61007f565b5b60006100de848285016100a5565b91505092915050565b6106f3806100f66000396000f3fe60806040526004361061004a5760003560e01c806310e569731461004f5780633ccfd60b1461007a5780638da5cb5b14610091578063adc34d79146100bc578063b32820e9146100e5575b600080fd5b34801561005b57600080fd5b50610064610101565b60405161007191906103f9565b60405180910390f35b34801561008657600080fd5b5061008f610107565b005b34801561009d57600080fd5b506100a66101fe565b6040516100b39190610455565b60405180910390f35b3480156100c857600080fd5b506100e360048036038101906100de91906104a1565b610222565b005b6100ff60048036038101906100fa91906104a1565b6102fb565b005b60015481565b60008054906101000a900473ffffffffffffffffffffffffffffffffffffffff1673ffffffffffffffffffffffffffffffffffffffff163373ffffffffffffffffffffffffffffffffffffffff1614610195576040517f08c379a000000000000000000000000000000000000000000000000000000000815260040161018c9061052b565b60405180910390fd5b60008054906101000a900473ffffffffffffffffffffffffffffffffffffffff1673ffffffffffffffffffffffffffffffffffffffff166108fc479081150290604051600060405180830381858888f193505050501580156101fb573d6000803e3d6000fd5b50565b60008054906101000a900473ffffffffffffffffffffffffffffffffffffffff1681565b60008054906101000a900473ffffffffffffffffffffffffffffffffffffffff1673ffffffffffffffffffffffffffffffffffffffff163373ffffffffffffffffffffffffffffffffffffffff16146102b0576040517f08c379a00000000000000000000000000000000000000000000000000000000081526004016102a79061052b565b60405180910390fd5b60006001549050816001819055507f67e3b5566dd42da80923c33bc11461cd8811d12c7d639be840c0b824fd58338081836040516102ef92919061054b565b60405180910390a15050565b6000811161033e576040517f08c379a0000000000000000000000000000000000000000000000000000000008152600401610335906105c0565b60405180910390fd5b6001548161034c919061060f565b341461038d576040517f08c379a00000000000000000000000000000000000000000000000000000000081526004016103849061069d565b60405180910390fd5b3373ffffffffffffffffffffffffffffffffffffffff167fd8e5d92e97fe7f8343bb70e70d3c8d556324e046e09302ef4d7cb1c7dd384d7782346040516103d592919061054b565b60405180910390a250565b6000819050919050565b6103f3816103e0565b82525050565b600060208201905061040e60008301846103ea565b92915050565b600073ffffffffffffffffffffffffffffffffffffffff82169050919050565b600061043f82610414565b9050919050565b61044f81610434565b82525050565b600060208201905061046a6000830184610446565b92915050565b600080fd5b61047e816103e0565b811461048957600080fd5b50565b60008135905061049b81610475565b92915050565b6000602082840312156104b7576104b6610470565b5b60006104c58482850161048c565b91505092915050565b600082825260208201905092915050565b7f4e6f74206f776e65720000000000000000000000000000000000000000000000600082015250565b60006105156009836104ce565b9150610520826104df565b602082019050919050565b6000602082019050818103600083015261054481610508565b9050919050565b600060408201905061056060008301856103ea565b61056d60208301846103ea565b9392505050565b7f4d75737420627579206174206c65617374203100000000000000000000000000600082015250565b60006105aa6013836104ce565b91506105b582610574565b602082019050919050565b600060208201905081810360008301526105d98161059d565b9050919050565b7f4e487b7100000000000000000000000000000000000000000000000000000000600052601160045260246000fd5b600061061a826103e0565b9150610625836103e0565b9250828202610633816103e0565b9150828204841483151761064a576106496105e0565b5b5092915050565b7f57726f6e67204156415820616d6f756e74000000000000000000000000000000600082015250565b60006106876011836104ce565b915061069282610651565b602082019050919050565b600060208201905081810360008301526106b68161067a565b905091905056fea26469706673582212206b5b2f61e87314e5b7bdcfbc8b89a8808b64b3d71515822eb21c14f5666841b464736f6c63430008130033",
  "linkReferences": {},
  "deployedLinkReferences": {}
}