{
  "_format": "hh-sol-artifact-1",
  "contractName": "SovaSplitter",
  "sourceName": "contracts/SovaSplitter.sol",
  "abi": [
    {
      "inputs": [
        {
          "internalType": "address",
          "name": "_jackpot",
          "type": "address"
        },
        {
          "internalType": "address",
          "name": "_weeklyPool",
          "type": "address"
        },
        {
          "internalType": "address",
          "name": "_teamWallet",
          "type": "address"
        },
        {
          "internalType": "uint256",
          "name": "_jackpotShare",
          "type": "uint256"
        },
        {
          "internalType": "uint256",
          "name": "_weeklyShare",
          "type": "uint256"
        },
        {
          "internalType": "uint256",
          "name": "_teamShare",
          "type": "uint256"
        }
      ],
      "stateMutability": "nonpayable",
      "type": "constructor"
    },
    {
      "anonymous": false,
      "inputs": [
        {
          "indexed": false,
          "internalType": "uint256",
          "name": "total",
          "type": "uint256"
        },
        {
          "indexed": false,
          "internalType": "uint256",
          "name": "toJackpot",
          "type": "uint256"
        },
        {
          "indexed": false,
          "internalType": "uint256",
          "name": "toWeekly",
          "type": "uint256"
        },
        {
          "indexed": false,
          "internalType": "uint256",
          "name": "toTeam",
          "type": "uint256"
        }
      ],
      "name": "Split",
      "type": "event"
    },
    {
      "inputs": [],
      "name": "jackpotContract",
      "outputs": [
        {
          "internalType": "address",
          "name": "",
          "type": "address"
        }
      ],
      "stateMutability": "view",
      "type": "function"
    },
    {
      "inputs": [],
      "name": "jackpotShare",
      "outputs": [
        {
          "internalType": "uint256",
          "name": "",
          "type": "uint256"
        }
      ],
      "stateMutability": "view",
      "type": "function"
    },
    {
      "inputs": [],
      "name": "owner",
      "outputs": [
        {
          "internalType": "address",
          "name": "",
          "type": "address"
        }
      ],
      "stateMutability": "view",
      "type": "function"
    },
    {
      "inputs": [
        {
          "internalType": "address",
          "name": "_jackpot",
          "type": "address"
        },
        {
          "internalType": "address",
          "name": "_weeklyPool",
          "type": "address"
        },
        {
          "internalType": "address",
          "name": "_teamWallet",
          "type": "address"
        }
      ],
      "name": "setAddresses",
      "outputs": [],
      "stateMutability": "nonpayable",
      "type": "function"
    },
    {
      "inputs": [
        {
          "internalType": "uint256",
          "name": "_jackpot",
          "type": "uint256"
        },
        {
          "internalType": "uint256",
          "name": "_weekly",
          "type": "uint256"
        },
        {
          "internalType": "uint256",
          "name": "_team",
          "type": "uint256"
        }
      ],
      "name": "setShares",
      "outputs": [],
      "stateMutability": "nonpayable",
      "type": "function"
    },
    {
      "inputs": [],
      "name": "teamShare",
      "outputs": [
        {
          "internalType": "uint256",
          "name": "",
          "type": "uint256"
        }
      ],
      "stateMutability": "view",
      "type": "function"
    },
    {
      "inputs": [],
      "name": "teamWallet",
      "outputs": [
        {
          "internalType": "address",
          "name": "",
          "type": "address"
        }
      ],
      "stateMutability": "view",
      "type": "function"
    },
    {
      "inputs": [],
      "name": "weeklyPoolContract",
      "outputs": [
        {
          "internalType": "address",
          "name": "",
          "type": "address"
        }
      ],
      "stateMutability": "view",
      "type": "function"
    },
    {
      "inputs": [],
      "name": "weeklyShare",
      "outputs": [
        {
          "internalType": "uint256",
          "name": "",
          "type": "uint256"
        }
      ],
      "stateMutability": "view",
      "type": "function"
    },
    {
      "stateMutability": "payable",
      "type": "receive"
    }
  ],
  "bytecode": "0x60806040523480156200001157600080fd5b5060405162000f1b38038062000f1b833981810160405281019062000037919062000260565b60648183856200004891906200032b565b6200005491906200032b565b1462000097576040517f08c379a00000000000000000000000000000000000000000000000000000000081526004016200008e90620003c7565b60405180910390fd5b336000806101000a81548173ffffffffffffffffffffffffffffffffffffffff021916908373ffffffffffffffffffffffffffffffffffffffff16021790555085600160006101000a81548173ffffffffffffffffffffffffffffffffffffffff021916908373ffffffffffffffffffffffffffffffffffffffff16021790555084600260006101000a81548173ffffffffffffffffffffffffffffffffffffffff021916908373ffffffffffffffffffffffffffffffffffffffff16021790555083600360006101000a81548173ffffffffffffffffffffffffffffffffffffffff021916908373ffffffffffffffffffffffffffffffffffffffff160217905550826004819055508160058190555080600681905550505050505050620003e9565b600080fd5b600073ffffffffffffffffffffffffffffffffffffffff82169050919050565b6000620001ed82620001c0565b9050919050565b620001ff81620001e0565b81146200020b57600080fd5b50565b6000815190506200021f81620001f4565b92915050565b6000819050919050565b6200023a8162000225565b81146200024657600080fd5b50565b6000815190506200025a816200022f565b92915050565b60008060008060008060c0878903121562000280576200027f620001bb565b5b60006200029089828a016200020e565b9650506020620002a389828a016200020e565b9550506040620002b689828a016200020e565b9450506060620002c989828a0162000249565b9350506080620002dc89828a0162000249565b92505060a0620002ef89828a0162000249565b9150509295509295509295565b7f4e487b7100000000000000000000000000000000000000000000000000000000600052601160045260246000fd5b6000620003388262000225565b9150620003458362000225565b925082820190508082111562000360576200035f620002fc565b5b92915050565b600082825260208201905092915050565b7f4d75737420657175616c20313030000000000000000000000000000000000000600082015250565b6000620003af600e8362000366565b9150620003bc8262000377565b602082019050919050565b60006020820190508181036000830152620003e281620003a0565b9050919050565b610b2280620003f96000396000f3fe60806040526004361061008a5760003560e01c80638da5cb5b116100595780638da5cb5b14610149578063a0885e9314610174578063c0f2a1e81461019d578063c26b2c8e146101c8578063ea6ef2fe146101f35761009a565b8063363bf9641461009f5780634255e808146100c857806359927044146100f35780636efd17d61461011e5761009a565b3661009a576100983461021e565b005b600080fd5b3480156100ab57600080fd5b506100c660048036038101906100c19190610755565b6103f3565b005b3480156100d457600080fd5b506100dd610549565b6040516100ea91906107b7565b60405180910390f35b3480156100ff57600080fd5b5061010861056f565b60405161011591906107b7565b60405180910390f35b34801561012a57600080fd5b50610133610595565b60405161014091906107eb565b60405180910390f35b34801561015557600080fd5b5061015e61059b565b60405161016b91906107b7565b60405180910390f35b34801561018057600080fd5b5061019b60048036038101906101969190610832565b6105bf565b005b3480156101a957600080fd5b506101b26106c0565b6040516101bf91906107eb565b60405180910390f35b3480156101d457600080fd5b506101dd6106c6565b6040516101ea91906107b7565b60405180910390f35b3480156101ff57600080fd5b506102086106ec565b60405161021591906107eb565b60405180910390f35b600060646004548361023091906108b4565b61023a9190610925565b9050600060646005548461024e91906108b4565b6102589190610925565b905060008183856102699190610956565b6102739190610956565b9050600160009054906101000a900473ffffffffffffffffffffffffffffffffffffffff1673ffffffffffffffffffffffffffffffffffffffff166108fc849081150290604051600060405180830381858888f193505050501580156102dd573d6000803e3d6000fd5b50600260009054906101000a900473ffffffffffffffffffffffffffffffffffffffff1673ffffffffffffffffffffffffffffffffffffffff166108fc839081150290604051600060405180830381858888f19350505050158015610346573d6000803e3d6000fd5b50600360009054906101000a900473ffffffffffffffffffffffffffffffffffffffff1673ffffffffffffffffffffffffffffffffffffffff166108fc829081150290604051600060405180830381858888f193505050501580156103af573d6000803e3d6000fd5b507f493ae8affdadf8bca526bb93601a9be01655081df8a914b104edcfac7ca98f99848484846040516103e5949392919061098a565b60405180910390a150505050565b60008054906101000a900473ffffffffffffffffffffffffffffffffffffffff1673ffffffffffffffffffffffffffffffffffffffff163373ffffffffffffffffffffffffffffffffffffffff1614610481576040517f08c379a000000000000000000000000000000000000000000000000000000000815260040161047890610a2c565b60405180910390fd5b82600160006101000a81548173ffffffffffffffffffffffffffffffffffffffff021916908373ffffffffffffffffffffffffffffffffffffffff16021790555081600260006101000a81548173ffffffffffffffffffffffffffffffffffffffff021916908373ffffffffffffffffffffffffffffffffffffffff16021790555080600360006101000a81548173ffffffffffffffffffffffffffffffffffffffff021916908373ffffffffffffffffffffffffffffffffffffffff160217905550505050565b600160009054906101000a900473ffffffffffffffffffffffffffffffffffffffff1681565b600360009054906101000a900473ffffffffffffffffffffffffffffffffffffffff1681565b60045481565b60008054906101000a900473ffffffffffffffffffffffffffffffffffffffff1681565b60008054906101000a900473ffffffffffffffffffffffffffffffffffffffff1673ffffffffffffffffffffffffffffffffffffffff163373ffffffffffffffffffffffffffffffffffffffff161461064d576040517f08c379a000000000000000000000000000000000000000000000000000000000815260040161064490610a2c565b60405180910390fd5b606481838561065c9190610a4c565b6106669190610a4c565b146106a6576040517f08c379a000000000000000000000000000000000000000000000000000000000815260040161069d90610acc565b60405180910390fd5b826004819055508160058190555080600681905550505050565b60055481565b600260009054906101000a900473ffffffffffffffffffffffffffffffffffffffff1681565b60065481565b600080fd5b600073ffffffffffffffffffffffffffffffffffffffff82169050919050565b6000610722826106f7565b9050919050565b61073281610717565b811461073d57600080fd5b50565b60008135905061074f81610729565b92915050565b60008060006060848603121561076e5761076d6106f2565b5b600061077c86828701610740565b935050602061078d86828701610740565b925050604061079e86828701610740565b9150509250925092565b6107b181610717565b82525050565b60006020820190506107cc60008301846107a8565b92915050565b6000819050919050565b6107e5816107d2565b82525050565b600060208201905061080060008301846107dc565b92915050565b61080f816107d2565b811461081a57600080fd5b50565b60008135905061082c81610806565b92915050565b60008060006060848603121561084b5761084a6106f2565b5b60006108598682870161081d565b935050602061086a8682870161081d565b925050604061087b8682870161081d565b9150509250925092565b7f4e487b7100000000000000000000000000000000000000000000000000000000600052601160045260246000fd5b60006108bf826107d2565b91506108ca836107d2565b92508282026108d8816107d2565b915082820484148315176108ef576108ee610885565b5b5092915050565b7f4e487b7100000000000000000000000000000000000000000000000000000000600052601260045260246000fd5b6000610930826107d2565b915061093b836107d2565b92508261094b5761094a6108f6565b5b828204905092915050565b6000610961826107d2565b915061096c836107d2565b925082820390508181111561098457610983610885565b5b92915050565b600060808201905061099f60008301876107dc565b6109ac60208301866107dc565b6109b960408301856107dc565b6109c660608301846107dc565b95945050505050565b600082825260208201905092915050565b7f4e6f74206f776e65720000000000000000000000000000000000000000000000600082015250565b6000610a166009836109cf565b9150610a21826109e0565b602082019050919050565b60006020820190508181036000830152610a4581610a09565b9050919050565b6000610a57826107d2565b9150610a62836107d2565b9250828201905080821115610a7a57610a79610885565b5b92915050565b7f4d75737420657175616c20313030000000000000000000000000000000000000600082015250565b6000610ab6600e836109cf565b9150610ac182610a80565b602082019050919050565b60006020820190508181036000830152610ae581610aa9565b905091905056fea2646970667358221220bc77c2a08620ee77d2802b85709b19b84d62ee077d079a0f95923100dba6fbe264736f6c63430008130033",
  "linkReferences": {},
  "deployedLinkReferences": {}
}